:08000000803102288731FD2F39
:100F84008731DD2787318731C82708006230310077
:100F94008D008F0191010230930092010800873186
:100FA400C2278731D72F8F308C0020000C1FD52FFC
:100FB40000308C00D72F2000970108303E00E50058
:100FC4000130200096009801FF303E00B900FF3048
:100FD400C400FF30CF000430B800FF30C300FF303E
:100FE400CE00FF3020009200FF309300703091005B
:0C0FF4002E001612080020008731D12FBB
:020000040001F9
:0A000E00EC3FFF3B9F3FFF1FFF3F49
:00000001FF
